:100000000C942A000C9434000C9434000C943400AA
:100010000C9434000C9434000C9434000C94340090
:100020000C9434000C9434000C9434000C94340080
:100030000C9434000C9434000C9434000C94340070
:100040000C9434000C9434000C9434000C94340060
:100050000C94340011241FBECFE5D8E0DEBFCDBF25
:100060000E9436000C94C4010C9400001ABA87B3A5
:100070008E6187BBCB9B12C0CC9B10C0CD9B0EC0AA
:10008000C9990CC0CA990AC0CE9908C0CF9906C0B8
:1000900088B38A6088BBC298C498ECCFCB9B12C04F
:1000A000CC9B10C0C9990EC0CA990CC0CD990AC08A
:1000B000CE9908C0CF9906C088B38A6088BBC29821
:1000C000C498D8CFCC9B12C0CD9B10C0C9990EC08C
:1000D000CA990CC0CB990AC0CE9908C0CF9906C066
:1000E00088B38A6088BBC298C498C4CFCA9B11C029
:1000F000CB9B0FC0CC9B0DC0C9990BC0CD9909C03B
:10010000CE9907C0CF9905C0C39AC298C198C49828
:10011000B1CFCA9B12C0CB9B10C0C99B0EC0CC995B
:100120000CC0CD990AC0CE9908C0CF9906C088B33B
:100130008C6088BBC198C4989DCFCA9B11C0CB9BD3
:100140000FC0C9990DC0CC990BC0CD9909C0CE99EB
:1001500007C0CF9905C0C39AC298C198C4988ACFE6
:10016000CA9B11C0C99B0FC0CB990DC0CC990BC0C5
:10017000CD9909C0CE9907C0CF9905C0C39AC2983E
:10018000C198C49877CFCC9B11C0CD9B0FC0CE999E
:100190000DC0CF990BC0CB9909C0CA9907C0C999A6
:1001A00005C0C19AC298C398C49864CFCD9B12C0B1
:1001B000CE9910C0CF9B0EC0C9990CC0CA990AC075
:1001C000CB9908C0CC9906C088B3826188BBC3981C
:1001D000C49850CFCD9B11C0CE990FC0CF990DC000
:1001E000CC990BC0CB9909C0CA9907C0C99905C061
:1001F000C19AC298C398C4983DCFCE9911C0CF9BE5
:100200000FC0C9990DC0CA990BC0CB9909C0CC9930
:1002100007C0CD9905C0C19AC298C398C4982ACF87
:10022000C99B12C0CA9B10C0CB9B0EC0CC9B0CC0FC
:10023000CD990AC0CE9908C0CF9906C088B38C600A
:1002400088BBC198C49816CFCD9B11C0CA9B0FC064
:10025000CB9B0DC0CC9B0BC0C99909C0CE9907C0E0
:10026000CF9905C0C39AC298C198C49803CFCD9BBB
:1002700011C0CF9B0FC0CB9B0DC0CC9B0BC0C999AD
:1002800009C0CE9907C0CA9905C0C19AC298C3983F
:10029000C498F0CECD9B12C0CE9910C0CF9B0EC09B
:1002A000CC9B0CC0C9990AC0CB9908C0CA9906C09A
:1002B00088B3826188BBC398C498DCCEC99B11C047
:1002C000CA9B0FC0CB9B0DC0CC9B0BC0CD9B09C064
:1002D000CE9907C0CF9905C0C39AC298C198C49857
:1002E000C9CECE9912C0CA9B10C0CB9B0EC0CC9B6E
:1002F0000CC0CD9B0AC0C99908C0CF9906C088B36D
:100300008A6088BBC298C498B5CECE9911C0CF9BE5
:100310000FC0CB9B0DC0CC9B0BC0CD9B09C0C99916
:1003200007C0CA9905C0C19AC298C398C498A2CE02
:10033000C99B11C0CA9B0FC0CB9B0DC0CC9B0BC0EF
:10034000CD9B09C0CE9907C0CF9905C0C39AC2986A
:10035000C198C4988FCECF9B11C0CA9B0FC0CB9BB6
:100360000DC0CC9B0BC0CD9B09C0CE9907C0C999CD
:1003700005C0C19AC298C398C4987CCE88B38A60DD
:0C03800088BBC298C49876CEF894FFCFDA
:00000001FF
